:1000000052EF14F00000000000EF00F000000000CC
:0A0010000000000000000000F3D71C
:0E001C000101DFB102D08B9801D08B88120059
:0E002A000101DFB102D08B9601D08B8612004F
:0E0038000101DFB102D08D9601D08D8612003D
:0E0046000101DFB102D0899401D0898412003B
:0E0054000101DFB102D08B9C01D08B8C120019
:0E0062000101DFB102D08B9401D08B8412001B
:0E0070000101DFB102D08B9A01D08B8A120001
:0E007E000101DFB102D08B9E01D08B8E1200EB
:0E008C000101DFB102D08A9201D08A821200F7
:0E009A000101DFB102D08D9401D08D841200DF
:0E00A8000101DFB102D08F9201D08F821200D1
:0E00B6000101DFB102D08F9401D08F841200BF
:0E00C4000101DFB102D08B9801D08B881200B1
:0E00D2000101DFB102D08B9601D08B861200A7
:0E00E0000101DFB102D08A9401D08A8412009F
:0E00EE000101DFB102D08B9801D08B88120087
:0E00FC000101DFB102D08B9601D08B8612007D
:0E010A000101DFB102D08F9001D08F80120072
:0E0118000101DFB102D08B9A01D08B8A120058
:0E0126000101DFB102D08B9801D08B8812004E
:0E0134000101DFB102D08B9801D08B88120040
:0E0142000101DFB102D08B9601D08B86120036
:0E0150000101DFB102D08B9201D08B82120030
:0E015E000101DFB102D08B9A01D08B8A120012
:0E016C000101DFB102D08D9001D08D80120014
:10017A000F0121B302D00000FBD7DFC11CFF120020
:0E018A00ACB202D00000FCD7DFC1ADFF120006
:0E0198000101DFB102D08B9001D08B801200EC
:0E01A6000101DFB102D0899001D089801200E2
:0E01B4000101DFB102D0899801D089881200C4
:0E01C2000101DFB102D0899201D089821200C2
:0E01D0000101DFB102D08B9601D08B861200A8
:0E01DE000101DFB102D08D9201D08D8212009E
:0E01EC000101DFB102D08B9801D08B88120088
:0E01FA000101DFB102D08B9E01D08B8E12006E
:0E0208000101DFB102D08A9001D08A8012007D
:0E0216000101DFB102D08B9601D08B86120061
:0E0224000101DFB102D08B9C01D08B8C120047
:10023200F250026EF29E0500FF6A0150FE6E0050FF
:08024200FD6E02BEF28E1200F7
:10024A0068B409D01F0E6614016E0150000A03E15A
:0A025A00010E006E01D0006A1200D0
:10026400C7B409D01F0EC514016E0150000A03E182
:0A027400010E006E01D0006A1200B6
:0A027E00000E82BC010E006E12009B
:0A028800000E80B2010E006E12009D
:0A029200000E82B8010E006E12008B
:0A029C00000E82B6010E006E120083
:0A02A600000E81B2010E006E12007E
:0A02B000000E82BE010E006E120067
:0A02BA00000E82B6010E006E120065
:0A02C400000E82B4010E006E12005D
:0A02CE00000EA4BA010E006E12002B
:0A02D800000E82BA010E006E120043
:1002E2002EC1DBF12FC1DCF130C1DDF131C1DEF114
:1002F2000101D96BDA6BDA51120802E1D9518E0889
:1003020008E3AFDF005201E004D00101D94BDA2B40
:10031200F2D70101120EDA5D02E18F0ED95D03E31D
:100322007B0E006E24D0C580C5A020D02E512F1187
:10033200301131111AE0DB51DC11DD11DE110EE159
:1003420087C1E1FF88C1E2FF050EE66E85C100F0BC
:1003520086C101F06DDF010E006E09D0010E0101B0
:10036200DB5F000EDC5BDD5BDE5BDED7006A12006A
:1003720024C1DBF125C1DCF126C1DDF127C1DEF1AB
:100382000101D96BDA6BDA51120802E1D9518E08F8
:1003920008E35ADF005201E004D00101D94BDA2B05
:1003A200F2D70101120EDA5D02E18F0ED95D03E38D
:1003B2007B0E006E24D0668066A020D024512511C9
:1003C200261127111AE0DB51DC11DD11DE110EE1DD
:1003D20073C1E1FF74C1E2FF050EE66E71C100F068
:1003E20072C101F025DF010E006E09D0010E01017C
:1003F200DB5F000EDC5BDD5BDE5BDED7006A1200DA
:0A040200000E82B8010E006E120019
:0A040C00000E82BA010E006E12000D
:10041600AECF01F0ABA202D0AB98AB8801C000F022
:020426001200C2
:0A042800000E9EBA010E006E1200D5
:0A043200000E80B8010E006E1200EB
:0A043C00000E82B8010E006E1200DF
:0404460066841200B6
:10044A00A19AD9C16AFF24C1DAF125C1DBF126C11B
:10045A00DCF127C1DDF168A421D001012451251165
:10046A00261127111AE0DA51DB11DC11DD110EE138
:10047A0073C1E1FF74C1E2FF040EE66E71C100F0C0
:10048A0072C101F0D1DE010E006E3AD0010E0101F7
:10049A00DA5F000EDB5BDC5BDD5BDDD724C1DAF102
:1004AA0025C1DBF126C1DCF127C1DDF1A1BA21D0DA
:1004BA00010124512511261127111AE0DA51DB1105
:1004CA00DC11DD110EE173C1E1FF74C1E2FF040E1C
:1004DA00E66E71C100F072C101F0A6DE010E006E77
:1004EA000FD0010E0101DA5F000EDB5BDC5BDD5B26
:1004FA00DDD766BC02D0006A03D06684020E006EA5
:02050A001200DD
:0A050C00000E84B4010E006E120010
:0A051600000E84B2010E006E120008
:0A052000000E82B6010E006E1200FC
:10052A0024C1DBF125C1DCF126C1DDF127C1DEF1F1
:10053A00A19A6686A1BA1FD001012451251126115C
:10054A00271118E0DB51DC11DD11DE110CE173C15A
:10055A00E1FF74C1E2FF030EE66E71C100F072C1E1
:10056A0001F062DE08D0010E0101DB5F000EDC5BE8
:10057A00DD5BDE5BDFD701016ACFDAF1D951000A10
:10058A0002E1668A01D0669AA19A668824C1DBF1E3
:10059A0025C1DCF126C1DDF127C1DEF1A1BA1ED0E9
:1005AA00245125112611271118E0DB51DC11DD1128
:1005BA00DE110CE173C1E1FF74C1E2FF030EE66EC6
:1005CA0071C100F072C101F02FDE08D0010E0101E5
:1005DA00DB5F000EDC5BDD5BDE5BE0D7DAC100F0DF
:0205EA001200FD
:0A05EC00000E82BC010E006E12002A
:1005F60024C1D9F125C1DAF126C1DBF127C1DCF12D
:10060600668266A21FD001012451251126112711E9
:1006160018E0D951DA11DB11DC110CE173C1E1FFED
:1006260074C1E2FF060EE66E71C100F072C101F000
:10063600FDDD08D0010E0101D95F000EDA5BDB5B40
:06064600DC5BDFD71200AF
:0A064C00000E84B6010E006E1200CD
:0A065600000E80B4010E006E1200C9
:04066000C58412003B
:100664002EC1D9F12FC1DAF130C1DBF131C1DCF196
:10067400C582C5A21FD001012E512F113011311195
:1006840018E0D951DA11DB11DC110CE187C1E1FF6B
:1006940088C1E2FF060EE66E85C100F086C101F056
:1006A400C6DD08D0010E0101D95F000EDA5BDB5B09
:0606B400DC5BDFD7120041
:1006BA009E96D9C1C9FF2EC1DAF12FC1DBF130C133
:1006CA00DCF131C1DDF1C7A421D001012E512F1176
:1006DA00301131111AE0DA51DB11DC11DD110EE1B2
:1006EA0087C1E1FF88C1E2FF040EE66E85C100F012
:1006FA0086C101F099DD010E006E3AD0010E0101AA
:10070A00DA5F000EDB5BDC5BDD5BDDD72EC1DAF185
:10071A002FC1DBF130C1DCF131C1DDF19EB621D050
:10072A0001012E512F11301131111AE0DA51DB116A
:10073A00DC11DD110EE187C1E1FF88C1E2FF040E81
:10074A00E66E85C100F086C101F06EDD010E006E15
:10075A000FD0010E0101DA5F000EDB5BDC5BDD5BB3
:10076A00DDD7C5BC02D0006A03D0C584020E006E74
:02077A0012006B
:10077C002EC1DBF12FC1DCF130C1DDF131C1DEF175
:10078C009E96C5869EB61FD001012E512F11301199
:10079C00311118E0DB51DC11DD11DE110CE187C1E8
:1007AC00E1FF88C1E2FF030EE66E85C100F086C151
:1007BC0001F039DD08D0010E0101DB5F000EDC5BBE
:1007CC00DD5BDE5BDFD70101C9CFDAF1D951000A5D
:1007DC0002E1C58A01D0C59A9E96C5882EC1DBF16F
:1007EC002FC1DCF130C1DDF131C1DEF19EB61ED07E
:1007FC002E512F113011311118E0DB51DC11DD11AC
:10080C00DE110CE187C1E1FF88C1E2FF030EE66E49
:10081C0085C100F086C101F006DD08D0010E010192
:10082C00DB5F000EDC5BDD5BDE5BE0D7DAC100F08A
:02083C001200A8
:0A083E00000E82B8010E006E1200D9
:0A084800000E82B6010E006E1200D1
:100852001DCF01F00F0122A302D02299228901C0EB
:0408620000F0120090
:0A086600000E82BA010E006E1200AF
:0A087000000E86B0010E006E1200AB
:0A087A00000EACB2010E006E120079
:0A088400000E86B4010E006E120093
:0A088E00000E82BE010E006E120083
:0C089800000E0F0121B3010E006E1200D3
:0A08A400000E81B4010E006E120078
:0A08AE00000E82B8010E006E120069
:0A08B800000E84B0010E006E120065
:0A08C200000E82B2010E006E12005B
:0A08CC00000E80B0010E006E120055
:0A08D600000E82B6010E006E120043
:0A08E000000E81B0010E006E120040
:0A08EA00000E82B8010E006E12002D
:0A08F400000E86B2010E006E120025
:0A08FE00000E82B0010E006E120021
:0A090800000E82B6010E006E120010
:080912000AAE029E000E120065
:10091A000B840BAE98EF04F0010E036E026A016AB3
:0A092A00006A0A360232FF0E1200C6
:0E093400026A016A006A086A036A000E120075
:100942000101CF6BD06BA5C100F0A6C101F070DC34
:1009520000C0CFF1000E0101D06FCFC100F0D0C1B5
:0409620001F012008E
:1009660077C1E1FF78C1E2FFCFC1E9FFD0C1EAFF5D
:10097600EECFE6FF75C100F076C101F057DC006AE4
:0209860012005D
:100988000B800BAED0EF04F0026A0AAEFF0E026EC7
:0C099800016E006E0A360232FF0E1200E3
:1009A4008A0E0101B66F010EB76FDF0EB86F010E2C
:1009B400B96F160EAD6F040EAE6F000EAF6F000E62
:1009C400B06F280EB16F040EB26F000EB36F000E3D
:1009D400B46F7A0EA96F080EAA6F000EAB6F000EEB
:1009E400AC6FAC8A900EAB6E948E949C9EAA03D08E
:0809F400AECF00F0FBD71200AA
:1009FC00640E0101896F020E8A6F000E8B6F000E60
:100A0C008C6FE20E796F020E7A6F000E7B6F000E08
:100A1C007C6F640E7D6F060E7E6F000E7F6F000E76
:100A2C00806F7C0E816F070E826FD90E836F010E63
:100A3C00846FBA0E336F060E346FD90E356F010EFC
:100A4C00366F600E376F060E386F000E396F000E62
:100A5C003A6F949894968B988B9694889486C79EAC
:080A6C00C79C380EC66E120093
:100A74007A0E0101B66F010EB76FDF0EB86F010E6B
:100A8400B96F520EAD6F080EAE6F000EAF6F000E51
:100A9400B06FCE0EB16F020EB26F000EB36F000EC8
:100AA400B46F980EA96F080EAA6F000EAB6F000EFC
:100AB400AC6F0F01218B900E226F98849892A4AA98
:0A0AC40003D01DCF00F0FBD7120095
:100ACE000B820BAE71EF05F00368026801680068D7
:080ADE000A360232FF0E12007D
:080AE6000B6A0B86FF0E1200E3
:100AEE000101D76BD86BD0C1D5F1D1C1D6F1CFC131
:100AFE0000F00036009090C1E1FF91C1E2FF00C00E
:100B0E00E6FF8EC100F08FC101F019EC01F000502C
:100B1E000101D713000ED813D2C100F0D3C101F0DA
:100B2E00010ED25F000ED35B0050011018E090C191
:100B3E00E1FF91C1E2FFD5C1E9FFD6C1EAFFEECFD9
:100B4E00E6FF8EC100F08FC101F019EC01F00050EC
:100B5E000101D713000ED813D54BD62BDDD7D451A8
:100B6E00000A06E195C100F096C101F019EC01F002
:100B7E000101D451010A06E1A1C100F0A2C101F0A8
:0E0B8E0019EC01F0D7C100F0D8C101F012003F
:100B9C000101D76BD86BD0C1D5F1D1C1D6F1CFC182
:100BAC0000F000360090008090C1E1FF91C1E2FF9F
:100BBC0000C0E6FF8EC100F08FC101F019EC01F00E
:100BCC0000500101D713000ED813010ED25F000E96
:100BDC00D35BD251D31116E09FC1E1FFA0C1E2FF5C
:100BEC00010EE66E9DC100F09EC101F019EC01F002
:100BFC00D5C1E1FFD6C1E2FF00C0E6FF0101D54B34
:100C0C00D62BE3D79FC1E1FFA0C1E2FFE66A9DC1ED
:100C1C0000F09EC101F019EC01F0D5C1E1FFD6C185
:100C2C00E2FF00C0E6FF0101D451000A06E195C1C4
:100C3C0000F096C101F019EC01F00101D451010A48
:100C4C0006E1A1C100F0A2C101F019EC01F0D7C17D
:080C5C0000F0D8C101F0120004
:100C64000C6A0E6A0250D8A44BEF06F001C002F0E1
:100C740000C001F0006A0E860250D8A44BEF06F0C3
:100C840001C002F0016A0E960E880250D8B45DEFDE
:100C940006F00E50035ED8A4D8A062EF06F0D890F8
:100CA40002BE67EF06F0003601360236032E52EF1D
:100CB40006F062EF06F0010E0C6E3ADE6AEF06F003
:100CC400020E0C6E28DE6AEF06F0040E0C6E1FDEB8
:020CD40012000C
:100CD60021D0CF0EAF6EAC9462DE6BD0670EAF6ED6
:100CE600AC945DDE66D0CF0EAF6EAC8458DE61D0BC
:100CF600670EAF6EAC8453DE5CD0440EAF6EAC8430
:100D06004EDE57D0220EAF6EAC8449DE52D0060EB0
:100D1600006E58D00101000E006ECB1908E100509C
:100D2600CA1905E1120EC91902E1C851C00AD1E07B
:100D3600000E006ECB1908E10050CA1905E1250E18
:100D4600C91902E1C851800AC9E0000E006ECB192C
:100D560008E10050CA1905E14B0EC91902E1C85154
:100D6600000AC1E0000E006ECB1908E10050CA1956
:100D760005E1960EC91902E1C851000AB9E0000E54
:100D8600006ECB1908E10050CA1905E1E10EC91938
:100D960002E1C851000AB1E0CB51000A08E1CA518C
:100DA600010A05E1C951C20A02E1C851000AAAE0D6
:100DB600AED78A0E756F010E766FDF0E776F010E56
:060DC600786F006A1200C4
:100DCC0038D00F0120870D0E1F6F040E1E6F21856A
:100DDC004BDE7ED00F012087060E1F6F820E1E6F1A
:100DEC00218542DE75D00F012087030E1F6F400E48
:100DFC001E6F218539DE6CD00F012087010E1F6F0D
:100E0C00A00E1E6F218530DE63D00F012087010EEE
:100E1C001F6F150E1E6F218527DE5AD00F012087FC
:100E2C001F6B8A0E1E6F21851FDE52D0060E006EC0
:100E3C0059D0000E006E0101CB1908E10050CA19FF
:100E4C0005E1120EC91902E1C851C00ABAE0000E40
:100E5C00006ECB1908E10050CA1905E1250EC9191D
:100E6C0002E1C851800AB6E0000E006ECB1908E111
:100E7C000050CA1905E14B0EC91902E1C851000A0C
:100E8C00B2E0000E006ECB1908E10050CA1905E162
:100E9C00960EC91902E1C851000AAEE0000E006EB0
:100EAC00CB1908E10050CA1905E1E10EC91902E19C
:100EBC00C851000AAAE0CB51000A08E1CA51010A44
:100ECC0005E1C951C20A02E1C851000AA7E0AED738
:100EDC0001017A0E756F010E766FDF0E776F010EC2
:060EEC00786F006A12009D
:100EF20021D0CF0EAF6EAC9454DD6BD0670EAF6EC7
:100F0200AC944FDD66D0CF0EAF6EAC844ADD61D0BB
:100F1200670EAF6EAC8445DD5CD0440EAF6EAC8420
:100F220040DD57D0220EAF6EAC843BDD52D0060EB0
:100F3200006E58D00101000E006ECB1908E100507E
:100F4200CA1905E1120EC91902E1C851C00AD1E05D
:100F5200000E006ECB1908E10050CA1905E1250EFA
:100F6200C91902E1C851800AC9E0000E006ECB190E
:100F720008E10050CA1905E14B0EC91902E1C85136
:100F8200000AC1E0000E006ECB1908E10050CA1938
:100F920005E1960EC91902E1C851000AB9E0000E36
:100FA200006ECB1908E10050CA1905E1E10EC9191A
:100FB20002E1C851000AB1E0CB51000A08E1CA516E
:100FC200010A05E1C951C20A02E1C851000AAAE0B8
:100FD200AED78A0E756F010E766FDF0E776F010E38
:060FE200786F006A1200A6
:100FE800300E0101C825006E000EC921016E000EE9
:100FF800CA21026E1C0E0024F66E000E0120F76E48
:10100800000E0220F86E0900F5CF99F10900F5CF1E
:101018009AF10900F5CF9BF10900F5CF9CF1120078
:101028000A6A0350D8A40A800750D8A40A820A5032
:10103800D8B477EF08F0030AD8B430EF08F00AB054
:101048002BEF08F006AE75EF08F073EF08F002AE6C
:1010580073EF08F075EF08F00250800B0A6E029EDD
:101068000650800B069E0A18D8B441EF08F00A50C3
:10107800D8B473EF08F075EF08F00750035CD8B4E4
:101088004BEF08F0D8A067EF08F06DEF08F00650B6
:10109800025CD8B455EF08F0D8A067EF08F06DEF00
:1010A80008F00550015CD8B45FEF08F0D8A067EFEE
:1010B80008F06DEF08F00450005CD8B477EF08F042
:1010C800D8B06DEF08F00A52D8B475EF08F073EF96
:1010D80008F00A52D8B473EF08F075EF08F0D8801A
:0E10E8001200D8901200D880D8841200120096
:1010F6000450000A12E10550000A0FE10650000AEA
:101106000CE10750000A09E1FF0E006EFF0E016EAA
:101116007F0E026EFF0E036EA6D0086A096A07509C
:10112600D8B426EF09F00350D8B42AEF09F00250DC
:1011360006180A6E028E068E0E6A02C008F001C0FC
:101146000CF000C00DF004500D5E0550D8A0053C13
:101156000C5E0650D8A0063C085E086A0C6A0D6A4A
:10116600D8A0BDEF08F0D890023201320032083222
:10117600010E0E6E0750035ED8A0CAEF08F07E0E71
:101186000E240326D8B02FEF09F0D0EF08F07E0E1C
:101196000E240326D8A033EF09F0180E0B6E0D3679
:1011A6000C3608360036013602360E360450005E1E
:1011B6000550D8A0053C015E0650D8A0063C025E4C
:1011C60006340E120EA0EBEF08F00D80F6EF08F0D5
:1011D600045000260550D8B0053C01260650D8B06C
:1011E600062802260D900B2ED2EF08F01CEF09F010
:1011F600D8900036013602360E360450005E055091
:10120600D8A0053C015E0650D8A0063C025E063416
:101216000E10010B0D26D8B00C2AD8B4082AD8A473
:101226001CEF09F008320C320D32032AD8B42FEF26
:1012360009F00AAE089E0850026E0C50016E0D5061
:10124600006E36EF09F0010E4BDC36EF09F0020EA8
:101256009AEC04F036EF09F0040E36DC36EF09F0AE
:08126600080E8DEC04F01200EB
:10126E00C8C1F6FFC9C1F7FFCAC1F8FF0900F5CF23
:10127E00A5F10900F5CFA6F10900F5CFA7F10900F8
:10128E00F5CFA8F1040E0101C825F66E000EC92196
:10129E00F76E000ECA21F86E0900F5CF95F1090020
:1012AE00F5CF96F10900F5CF97F10900F5CF98F13A
:1012BE00080EC825F66E000EC921F76E000ECA2163
:1012CE00F86E0900F5CFA1F10900F5CFA2F10900E2
:1012DE00F5CFA3F10900F5CFA4F10C0EC825F66EDB
:1012EE00000EC921F76E000ECA21F86E0900F5CF67
:1012FE008EF10900F5CF8FF10900F5CF90F10900BD
:10130E00F5CF91F1100EC825F66E000EC921F76EBD
:10131E00000ECA21F86E0900F5CF9DF10900F5CF38
:10132E009EF10900F5CF9FF10900F5CFA0F1120053
:10133E005DD00101C9B102D0929401D092840F0107
:10134E0025957AD00101C9B102D0969601D0968624
:10135E0073D00101C9B102D0969401D096846CD09D
:10136E000101C9B102D0949601D0948665D00101D5
:10137E00C9B102D0949801D094885ED00101C9B150
:10138E0002D0949A01D0948A57D00101C9B102D0EB
:10139E00989001D0988050D00101C9B102D0939499
:1013AE0001D0938449D00101C9B102D0989401D0E3
:1013BE0098840F01239540D00101C9B102D09892B3
:1013CE0001D098820F01239337D00101C9B102D009
:1013DE00949601D0948630D00101C9B102D0949870
:1013EE0001D0948829D0010E006E28D00101C85179
:1013FE00000A9FE0C851010AA5E0C851020AA9E0FF
:10140E00C851030AADE0C851040AB1E0C851050A3B
:10141E00B5E0C851060AB9E0C851070ABDE0C85187
:10142E00080AC1E0C851090AC7E0C8510A0ACDE04E
:0E143E00C8510B0AD1E0D7D7000E006E120085
:10144C0059D00101C9B102D0929201D092820F0100
:10145C00259376D00101C9B102D0929801D092881F
:10146C006FD00101C9B102D0969201D0968268D09A
:10147C000101C9B102D0949601D0948661D00101CA
:10148C00C9B102D0949801D094885AD00101C9B145
:10149C0002D0949A01D0948A53D00101C9B102D0E0
:1014AC00949401D094844CD00101C9B102D0939290
:1014BC0001D0938245D00101C9B102D0949E01D0D4
:1014CC00948E3ED00101C9B102D0949C01D0948C71
:1014DC0037D00101C9B102D0949601D0948630D096
:1014EC000101C9B102D0949801D0948829D0010E81
:1014FC00006E28D00101C851000AA3E0C851010AAE
:10150C00A9E0C851020AADE0C851030AB1E0C851C4
:10151C00040AB5E0C851050AB9E0C851060ABDE095
:10152C00C851070AC1E0C851080AC5E0C851090AE8
:10153C00C9E0C8510A0ACDE0C8510B0AD1E0D7D78F
:06154C00000E006E12000B
:1015520059D00101C9B102D0929001D092800F01FD
:10156200259176D00101C9B102D0949001D0948026
:101572006FD00101C9B102D0969001D0968068D097
:101582000101C9B102D0949601D0948661D00101C3
:10159200C9B102D0949801D094885AD00101C9B13E
:1015A20002D0949A01D0948A53D00101C9B102D0D9
:1015B200949201D094824CD00101C9B102D093908F
:1015C20001D0938045D00101C9B102D0949E01D0CF
:1015D200948E3ED00101C9B102D0949C01D0948C6A
:1015E20037D00101C9B102D0949601D0948630D08F
:1015F2000101C9B102D0949801D0948829D0010E7A
:10160200006E28D00101C851000AA3E0C851010AA6
:10161200A9E0C851020AADE0C851030AB1E0C851BD
:10162200040AB5E0C851050AB9E0C851060ABDE08E
:10163200C851070AC1E0C851080AC5E0C851090AE1
:10164200C9E0C8510A0ACDE0C8510B0AD1E0D7D788
:06165200000E006E120004
:10165800C8C1CBF1C9C1CCF1CAC1CDF10DD0A00E22
:10166800C86EFEEC04F045D0280EC86EFEEC04F0FF
:1016780040D0040E006E3FD0CBC1F6FFCCC1F7FFBF
:10168800CDC1F8FF0900F5CF01F00900F5CF02F050
:101698000900F5CF03F00900F5CF04F00450000A63
:1016A80008E10350010A05E10250860A02E10150EF
:1016B800A00AD5E0CBC1F6FFCCC1F7FFCDC1F8FF3A
:1016C8000900F5CF01F00900F5CF02F00900F5CFC8
:1016D80003F00900F5CF04F00450000A08E10350B4
:1016E800060A05E102501A0A02E10150800ABCE02C
:0816F800C0D7000E006E1200C5
:1017000027D0CF0EAF6EAC94D2EC04F070D0670E41
:10171000AF6EAC94D2EC04F06AD0CF0EAF6EAC8456
:10172000D2EC04F064D0670EAF6EAC84D2EC04F05F
:101730005ED0440EAF6EAC84D2EC04F058D0220ED2
:10174000AF6EAC84D2EC04F052D0060E006E58D0CE
:101750000101000E006ECB1908E10050CA1905E125
:10176000120EC91902E1C851C00ACBE0000E006E8A
:10177000CB1908E10050CA1905E1250EC91902E18B
:10178000C851800AC4E0000E006ECB1908E1005079
:10179000CA1905E14B0EC91902E1C851000ABDE0A2
:1017A000000E006ECB1908E10050CA1905E1960E33
:1017B000C91902E1C851000AB6E0000E006ECB194B
:1017C00008E10050CA1905E1E10EC91902E1C8514A
:1017D000000AAFE0CB51000A08E1CA51010A05E155
:1017E000C951C20A02E1C851000AA9E0AED78A0E67
:1017F000756F010E766FDF0E776F010E786F006ADE
:021800001200D4
:10180200C8C1CBF1C9C1CCF1CAC1CDF10DD0A00E76
:10181200C86EFEEC04F045D0280EC86EFEEC04F053
:1018220040D0040E006E3FD0CBC1F6FFCCC1F7FF13
:10183200CDC1F8FF0900F5CF01F00900F5CF02F0A4
:101842000900F5CF03F00900F5CF04F00450000AB7
:1018520008E10350010A05E10250860A02E1015043
:10186200A00AD5E0CBC1F6FFCCC1F7FFCDC1F8FF8E
:101872000900F5CF01F00900F5CF02F00900F5CF1C
:1018820003F00900F5CF04F00450000A08E1035008
:10189200060A05E102501A0A02E10150800ABCE080
:0818A200C0D7000E006E120019
:1018AA00C8C1CBF1C9C1CCF1CAC1CDF10DD0A00ECE
:1018BA00C86EFEEC04F045D0280EC86EFEEC04F0AB
:1018CA0040D0040E006E3FD0CBC1F6FFCCC1F7FF6B
:1018DA00CDC1F8FF0900F5CF01F00900F5CF02F0FC
:1018EA000900F5CF03F00900F5CF04F00450000A0F
:1018FA0008E10350010A05E10250860A02E101509B
:10190A00A00AD5E0CBC1F6FFCCC1F7FFCDC1F8FFE5
:10191A000900F5CF01F00900F5CF02F00900F5CF73
:10192A0003F00900F5CF04F00450000A08E103505F
:10193A00060A05E102501A0A02E10150800ABCE0D7
:08194A00C0D7000E006E120070
:10195200A1EC04F093C1CFF1CA0ED06F010ED16F8A
:101962008DC1D2F1000ED36FD46BCEEC05F0CAC19B
:10197200CCF1000E0101CD6F8D51020A07E1CCC1FD
:10198200CDF1CC6BCB51CC13000ECD13C8C1E1FF0E
:0E199200C9C1E2FFCCC1E6FFCDC1E6FF1200E5
:1019A000010E0101C85D08E3C851040804E2C851F2
:1019B000080A01E001D003D0020E006E2AD0C8C18F
:1019C000CBF1C851080A0AE1C9C1CCF1020ECE6FB1
:1019D000010E8D6F030EC915926F0BD0CAC100F0B6
:1019E000016A00C0CCF1C9C1CDF1030ECE6F020E69
:1019F0008D6FA1EC04F093C1CFF1CB0ED06F010E2F
:101A0000D16FCEC1D2F1000ED36FD46B77EC05F05D
:041A1000006A120056
:101A1400C8C104F0C9C105F004C002F005C003F058
:101A2400044A052ACAC100F0CBC101F00101CA4B26
:101A3400CB2B00C0E9FF01C0EAFF02C0E1FF03C0F5
:101A4400E2FFEECFE6FF02C0E9FF03C0EAFFEE5279
:0E1A540001E0E2D7C8C100F0C9C101F01200E4
:101A6200C8C1CBF1C9C1CCF10D0E0101CD6F0A0E77
:101A7200CE6F3AD0CBC1CFF1CCC1D0F1B3EC04F0F0
:101A82003ED0CBC1E9FFCCC1EAFFEE520AE0CBC1A6
:101A9200CFF1CCC1D0F1B3EC04F00101CB4BCC2B94
:101AA200F0D72DD0CBC1E9FFCCC1EAFFEE520AE05C
:101AB200CBC1CFF1CCC1D0F1B3EC04F00101CB4BDF
:101AC200CC2BF0D70101CD0ECF6F010ED06FB3EC4E
:101AD20004F0CE0E0101CF6F010ED06FB3EC04F013
:101AE2000ED0060E006E0CD00101CA51000AC2E0EF
:101AF200CA51010AC6E0CA51020AD4E0F2D7006A0A
:021B02001200CF
:101B04000D6A086A0050D8B4000C04180A6E0ABEA4
:101B14000D1E0B6A04AE02D0041E042A00AE02D0CD
:101B2400001E002A005004100A6E0ABE1FD0045082
:101B3400085E003600340836045008260036060EC7
:101B44000C6E00340836045000B0085E00A008266D
:101B540000360C2EF6D700A008260BB015D00DAE1B
:101B6400000C001E002A081E082A000C04AE09D02E
:101B740000BE04D00050086E006AF1D7006A002A43
:101B8400000C001E0B2AD3D7082A0450085CD8A4E2
:0E1B9400E6D7086A002A00AEE2D7FF0C120066
:101BA200086A096A000E0762036456EF0EF00250DB
:101BB20006180A6E075003267E0ED8A0E7EF0DF036
:101BC200035ED8B05BEF0EF0EBEF0DF0035ED8A032
:101BD20060EF0EF0028E068E02C00EF001C00BF016
:101BE20000C00DF000500402F4CF0CF001500502C9
:101BF200F4CF00F0F3CF08F00402F3500C26F450B7
:101C02000822000E00220D500502F3500C26F4505B
:101C12000822000E002202500402F3500826F4505B
:101C2200002202500502016A000E0122F350002632
:101C3200F45001220D500602F3500826F4500022FF
:101C4200026A000E012202220B500602F350002605
:101C5200F4500122000E02220E500602F350012619
:101C6200F450022202BE3EEF0EF008360036013674
:101C720002360306D8B460EF0EF051EF0EF0D880B2
:101C8200800E08640030000E002201220222D8A039
:101C920051EF0EF0023201320032034A5BEF0EF0D6
:101CA2000AAE029E000E63EF0EF0010E9AEC04F0F3
:101CB20063EF0EF0020E67EC05F063EF0EF0040E18
:061CC2008DEC04F012009D
:101CC8000B6A0350D8B4AAEF0EF002500A6E028EC7
:101CD8008E0E035E03AEAEEF0EF0036C080E035CCF
:101CE800D8A089EF0EF0036E013602C001F0026A37
:101CF800080E035CD8A089EF0EF0036E0136016A66
:101D08000350D8A4D89093EF0EF00350D8B493EFB3
:101D18000EF0D89002320132032E8DEF0EF00BBC7C
:101D280001A0A0EF0EF0D8A0A0EF0EF0012AD8B4C1
:101D3800022A02BEBDEF0EF00AAEC3EF0EF0021E7D
:101D4800011E012AD8B4022AC3EF0EF0026A016A02
:101D5800C3EF0EF00B800BAEC7EF0EF0026A0AAEAF
:101D6800C7EF0EF0FF0E026E016E0A360232C7EFA1
:101D78000EF0010E0C6EC4EC04F0C9EF0EF0000E6C
:101D88000C6EC9EF0EF0FF0E0C6E0150006E025083
:041D9800016E1200C6
:101D9C0000C008F00150006E016A026A036A0B6A07
:101DAC000C6A016A026A036A960E036E0A6A00AE36
:101DBC00E6EF0EF0081E001E082AD8B4002A0A8E80
:101DCC0000C001F008C000F0086A026A32EC06F0AC
:021DDC001200F3
:101DDE00D00E0C6EC90E0D6E0D2EFED70C2EFCD72E
:061DEE00000000001200DD
:101DF4000101C851080803E2020E006E1AD0C8C1DE
:101E0400C9F1C851080A03E1010E8D6F02D0020E18
:101E14008D6FA1EC04F093C1CFF1C90ED06F010E08
:101E2400D16F010ED26F000ED36FD46B77EC05F037
:041E3400006A12002E
:101E38000101C66BC76BBAC1C2F1BBC1C3F1BCC15A
:101E4800C4F1BDC1C5F1C551FF0A08E1C451FF0A7B
:101E580005E1C351FF0A02E1C251FF0A0CE1BEC10C
:101E6800C8F1BFC1C9F1280ECA6F010ECB6FCEDD14
:101E7800030E006EEBD1010EC06FC4AF0ED0800E02
:101E8800C419006E00C0C4F1C02BBEC1E1FFBFC1C0
:101E9800E2FF2D0EE66EBE4BBF2B000E006EC5197D
:101EA80008E10050C41905E10050C31902E1C2510C
:101EB800000A0BE1BEC1C8F1BFC1C9F12C0ECA6F3F
:101EC800010ECB6FA3DD006AC1D1C551FF0A08E13D
:101ED800C451000A05E1C351000A02E1C251000AD7
:101EE8000CE1BEC1C8F1BFC1C9F1200ECA6F010E15
:101EF800CB6F8CDDC0C100F0A9D1000E046E000EBE
:101F0800056E000E066E7F0E076EC2C100F0C3C1DB
:101F180001F0C4C102F0C5C103F014EC08F0010ED1
:101F2800D8B0000E006E00521BE0C2C100F0C3C161
:101F380001F0C4C102F0C5C103F0000E046E000E2A
:101F4800056E200E066E820E076E27DE00C0C2F1F7
:101F580001C0C3F102C0C4F103C0C5F1C707CDD7A2
:101F6800000E046E000E056E200E066E820E076EC1
:101F7800C2C100F0C3C101F0C4C102F0C5C103F081
:101F880014EC08F0000ED8B0010E006E00521BE0F1
:101F9800C2C100F0C3C101F0C4C102F0C5C103F061
:101FA800CD0E046ECC0E056E4C0E066E7B0E076EC3
:101FB800F4DD00C0C2F101C0C3F102C0C4F103C026
:101FC800C5F1C72BCDD7FF0EC215086EFF0EC3157E
:101FD800096E7F0EC4150A6E000EC5150B6E08C07B
:101FE80004F009C005F00AC006F00BC007F004367B
:101FF8000490053606360736000EC215006E000E30
:10200800C315016E000EC415026EFF0EC515036ED2
:1020180000C0C2F101C0C3F102C0C4F103C0C5F1E0
:102028000450C211006E0550C311016E0650C41150
:10203800026E0750C511036E00C0C2F101C0C3F1A2
:1020480002C0C4F103C0C5F17F0EC55D006E00C0BB
:10205800C1F1010EC56F00C004F0C2C100F0C3C1D8
:1020680001F0C4C102F0C5C103F0045007E0003616
:102078000090013602360336FF0FF8D700C0C2F1D0
:1020880001C0C3F102C0C4F103C0C5F1BEC1E1FF84
:10209800BFC1E2FFC551300FE66EBE4BBF2B800EAD
:1020A800C719006E800E010A005C08E3800E060A5C
:1020B800006E800EC719005C01E30AD0BEC1E1FFC3
:1020C800BFC1E2FF2E0EE66EBE4BBF2B010EC66FE0
:1020D800060EC16FC151000A54E0C56BC2C100F0C1
:1020E800C3C101F0C4C102F0C5C103F000360090BD
:1020F80001360236033600360090013602360336C2
:10210800C2510026C3510122C4510222C5510322E3
:1021180000C0C2F101C0C3F102C0C4F103C0C5F1DF
:10212800C2C100F0C3C101F0C4C102F0C5C103F0CF
:102138000036009001360236033600C0C2F101C0F5
:10214800C3F102C0C4F103C0C5F1BEC1E1FFBFC104
:10215800E2FFC551300FE66EBE4BBF2BC651000AD9
:102168000EE1C707C751000A0AE1BEC1E1FFBFC1BE
:10217800E2FF2E0EE66EBE4BBF2B010EC66FC107E7
:10218800A9D7FF0EBE25E96EFF0EBF21EA6EEE50FD
:10219800300A05E1010EBE5F000EBF5BF2D7FF0EED
:1021A800BE25E96EFF0EBF21EA6EEE502E0A04E14D
:1021B800010EBE5F000EBF5BC751000A41E0BEC101
:1021C800E1FFBFC1E2FF650EE66EBE4BBF2B800E7E
:1021D800C719006E800E000A005C0BE2BEC1E1FF69
:1021E800BFC1E2FF2D0EE66EBE4BBF2BC7510008E4
:1021F800C76FC7C1C1F1800E090A006E800EC719EA
:10220800005C0EE20A0E046EC1C100F077DCBEC1AC
:10221800E1FFBFC1E2FF0050300FE66EBE4BBF2B9F
:102228000A0E046EC1C100F069DC08C000F0BEC12E
:10223800E1FFBFC1E2FF0050300FE66EBE4BBF2B7F
:0E224800BEC1E1FFBFC1E2FFE66A006A1200FC
:102256000101BA6BBB6B026A320E025C56E23B0EA0
:10226600E96E010EEA6E0250E926D8B0EA2AEE506F
:102276002E0A02E1010EBB6FBB51010AD8B4BA2B7C
:10228600BA51030840E23B0EE96E010EEA6E0250B7
:10229600E926D8B0EA2AEE50650A04E0BB51020AE4
:1022A60001E028D0040EBA5D006E016A000E015AE4
:1022B6000050025C006E0150000E01563B0E0024D9
:1022C600E16E010E0120E26E3B0EE96E010EEA6E32
:1022D6000250E926D8B0EA2AEECFE6FF3B0EE16EC1
:1022E600010EE26E0250E126D8B0E22AE66A020E3C
:1022F600BB6F09D03B0EE16E010EE26E0250E12685
:0C230600D8B0E22AE66A022AA7D712002B
:102312001ED0BBC1C8F1BCC1C9F1BDC1CAF12CEC10
:102322000BF020D0BBC1C8F1BCC1C9F1BDC1CAF11B
:1023320055EC0CF017D0BBC1C8F1BCC1C9F1BDC18D
:10234200CAF101EC0CF00ED0010E006E0BD00101AF
:10235200BA51000ADEE0BA51010AE4E0BA51020AB7
:06236200EAE0F2D71200D0
:1023680018D0BBC1C8F1BCC1C9F1A9EC0AF01CD096
:10237800BBC1C8F1BCC1C9F126EC0AF015D0BBC17C
:10238800C8F1BCC1C9F19FEC09F00ED0010E006E76
:102398000BD00101BA51000AE4E0BA51010AE8E0A1
:0A23A800BA51020AECE0F2D712006D
:1023B200200E01013B6FB00E3C6F430E3D6F3E6B32
:1023C2003B0EC86F010EC96F010ECA6F31EC0DF0E2
:0223D2001200F7
:1023D400C0C193F1070E0101C015006E500E00102C
:1023E400946FBDC1C8F1BEC1C9F1BFC1CAF137EC18
:1023F40009F0BAC1C8F1BBC1C9F1BCC1CAF1F4EC5E
:0C24040007F0010E926F020E8D6F1200A7
:10241000020E0101BA5D04E3BA51040801E303D0DE
:10242000020E006E53D0000E046E000E056EA00E5C
:10243000066E840E076EBBC100F0BCC101F0BDC1C9
:1024400002F0BEC103F014EC08F0010ED8B0000E8B
:10245000006E005219E1BBC104F0BCC105F0BDC162
:1024600006F0BEC107F0000E006E000E016E7A0E7F
:10247000026E850E036E14EC08F0010ED8B0000E4B
:10248000006E005201E103D0030E006E1FD0000E5B
:10249000046E000E056E000E066E7B0E076EBBC14D
:1024A00000F0BCC101F0BDC102F0BEC103F07BEC85
:1024B00008F00ADCFC0E00140101C96F01501F0B6B
:0E24C000CA6FBAC1C8F1D0EC0CF0006A12006D
:1024CE00020E0101BA5D04E3BA51050801E303D01F
:1024DE00020E006E46D03251BA1905E0BAC1C8F1EB
:1024EE0082DCBAC132F1BD0E0101C86F010EC96F97
:1024FE00A9EC0CF0000EBD15036EBE51E00B046E80
:10250E0004C000F0016A00C0C1F1BEA907D0000EE0
:10251E00BD11BF6FBE51E009C06F06D0FF0EBD15D5
:10252E00BF6FBE511F0BC06FBFC100F0C0C101F025
:10253E002EDC000E046E000E056E000E066E7B0E77
:10254E00076ED1EC0DF0BBC1E1FFBCC1E2FF00C0D4
:10255E00E6FF01C0E6FF02C0E6FF03C0E6FFC1C111
:04256E0000F0120067
:1025720010D0040E0101BA6F1AD0070EBA6F17D02D
:102582000E0EBA6F14D01B0EBA6F11D0070EBA6FAF
:102592000ED001019251000AECE09251010AEDE0E5
:1025A2009251020AEDE09251030AEDE0EFD7BB6BC4
:0E25B200BA51BB5D03E212DCBB2BFAD712005C
:1025C0002FD0BBC1C8F1BCC1C9F1BDC1CAF1BEC1E8
:1025D000CBF180EC0BF032D0BBC1C8F1BCC1C9F16A
:1025E000BDC1CAF1BEC1CBF179EC07F027D0BBC1A8
:1025F000C8F1BCC1C9F1BDC1CAF1BEC1CBF1E6ECA5
:1026000006F01CD0BBC1C8F1BCC1C9F1BDC1CAF143
:10261000BEC1CBF16BEC06F011D0010E006E0ED0F6
:102620000101BA51000ACDE0BA51010AD5E0BA5110
:0E263000020ADDE0BA51100AE5E0EFD7120011
:10263E00800E0101B515016E0150000A08E09C0ED6
:10264E00C86F000EC96F020ECA6F31EC0DF0400E4E
:10265E000101B515016E0150000A09E0580EC86F50
:10266E00000EC96F020ECA6F31EC0DF00FD0200EA6
:10267E000101B515016E0150000A08E0150EC86F74
:0E268E00000EC96F020ECA6F31EC0DF0120083
:10269C000101BA6B070EBB6F010EBC6F5FDE01014F
:1026AC00BA6B440EBB6F2A0EBC6F000EBD6F2BDED7
:1026BC00020E0101BA6F800EBB6F250EBC6F000EAF
:1026CC00BD6FBE6F77DFC40E0101C86F000EC96FFE
:1026DC00020ECA6F31EC0DF0090E0B6E1E0E0C6E55
:1026EC00E40E0D6E0D2EFED70C2EFCD70B2EFAD74A
:0426FC0000001200C8
:102700000900F5CFE6FF0006FBE10106F9E1120042
:1027100030DF050EBA6F6D0EBB6F010EBC6FD7DEDA
:1027200000C0B5F16DC1BAF16EC1BBF16FC1BCF1B2
:1027300070C1BDF13B0EBE6F010EBF6F1CEC0FF000
:102740008ADDDC0EC86F000EC96F010ECA6F31EC56
:102750000DF03B0E0101C86F010EC96F010ECA6F6B
:1027600031EC0DF026DE1B0E0101C86F010EC96FA2
:10277000020ECA6F31EC0DF062DF190E0B6E5A0EAD
:102780000C6EB10E0D6E0D2EFED70C2EFCD70B2E3F
:08279000FAD70000000012005E
:10279800D00E0101BA6F290EBB6F000EBC6F300E50
:1027A800BD6F2A0EBE6F000EBF6F180EC06F0EDE13
:1027B800290E0B6E960E0C6E7F0E0D6E0D2EFED72B
:1027C8000C2EFCD70B2EFAD7010EC86F000E006E28
:1027D800000E016E000E0010C96F01500009CA6F8B
:1027E800080EC913000ECA13040EC913000ECA132B
:1027F800020EC913000ECA13000EC913000ECA1325
:10280800D0EC0CF0080E0101C86F020EC96F000E63
:10281800CA6FD0EC0CF0040E0101BA6F000EBB6F4A
:10282800000EBC6F540EBD6F830EBE6FEDDD020E41
:102838000101BA6F000EBB6F000EBC6F700EBD6F4A
:10284800830EBE6FE1DD030E0101BA6F000EBB6F90
:10285800000EBC6FA00EBD6F810EBE6FD5DD110ED0
:102868000B6E3C0E0C6ECB0E0D6E0D2EFED70C2E85
:10287800FCD70B2EFAD7FB0E0101C86F000EC96FEB
:10288800020ECA6F31EC0DF0FA0E0101C86F000E8E
:0C289800C96F020ECA6F31EC0DF0120087
:0E28A40024EC15F0F9DE76DF31DFFED7FFD72A
:102A480010EE15F01E0E006E020E016EB20EF66E3E
:0E2A5800280EF76E000EF86E80EC13F01200E0
:1028B2002A2A2020416D6269656E742074656D70EC
:1028C20065726174757265206973206C6F776572C9
:1028D200207468616E206C6F776572206C696D6917
:1028E200742074656D706572617475726521202043
:0328F2002A2A008F
:1028F5002A2A2020416D6269656E742074656D70A9
:1029050065726174757265206973206869676865A9
:1029150072207468616E207570706572206C696DC7
:1029250069742074656D70657261747572652120B6
:04293500202A2A002A
:102939002A2A2020437269746963616C2074656D69
:102949007065726174757265206465746563746914
:082959006F6E2120202A2A00E4
:102961002A2A2A20496E697469616C697A696E67DD
:082971002E2E2E202A2A2A0036
:102979002A2A2020416D6269656E742074656D7024
:0E29890065726174757265206973203A2000D2
:01299700003F
:102998002A2A2054656D702D4C6F67203320697387
:1029A80020696E697469616C697A6564202A2A00F5
:0529B80020202A2A0086
:0429BD00494E460039
:0429C1000000000012
:0429C5004E614E0011
:0229C9003000DC
:0429CB000000000008
:0129CF000007
:1029D000A601DF019801DF016C01DF014201DF0187
:1029E0003401DF015E01DF015001DF010802DF0178
:1029F000FA01DF012402DF011602DF01EC01DF0131
:102A0000CC080000FE080000B8080000D60800004E
:102A10003E080000D8020000C2080000E0080000E4
:102A20008E0800007E0200009C02000002040000EC
:102A3000E20200006006000064060000BA06D90148
:042A40007C07D90135
:042A4400A086010067
:020000040030CA
:0E00000015137F7CF98B91FFFFC0FFE0FF40DE
:00000001FF
